{
  "abi": [
    {
      "type": "function",
      "name": "addConnection",
      "inputs": [
        {
          "name": "yourWorldId",
          "type": "uint256",
          "internalType": "uint256"
        },
        {
          "name": "otherWorldId",
          "type": "uint256",
          "internalType": "uint256"
        },
        {
          "name": "eventId",
          "type": "uint256",
          "internalType": "uint256"
        }
      ],
      "outputs": [],
      "stateMutability": "nonpayable"
    },
    {
      "type": "function",
      "name": "createEvent",
      "inputs": [
        {
          "name": "name",
          "type": "string",
          "internalType": "string"
        },
        {
          "name": "date",
          "type": "string",
          "internalType": "string"
        },
        {
          "name": "venue",
          "type": "string",
          "internalType": "string"
        },
        {
          "name": "location",
          "type": "string",
          "internalType": "string"
        }
      ],
      "outputs": [
        {
          "name": "",
          "type": "uint256",
          "internalType": "uint256"
        }
      ],
      "stateMutability": "nonpayable"
    },
    {
      "type": "function",
      "name": "eventParticipants",
      "inputs": [
        {
          "name": "",
          "type": "uint256",
          "internalType": "uint256"
        },
        {
          "name": "",
          "type": "uint256",
          "internalType": "uint256"
        }
      ],
      "outputs": [
        {
          "name": "",
          "type": "uint256",
          "internalType": "uint256"
        }
      ],
      "stateMutability": "view"
    },
    {
      "type": "function",
      "name": "events",
      "inputs": [
        {
          "name": "",
          "type": "uint256",
          "internalType": "uint256"
        }
      ],
      "outputs": [
        {
          "name": "id",
          "type": "uint256",
          "internalType": "uint256"
        },
        {
          "name": "name",
          "type": "string",
          "internalType": "string"
        },
        {
          "name": "date",
          "type": "string",
          "internalType": "string"
        },
        {
          "name": "venue",
          "type": "string",
          "internalType": "string"
        },
        {
          "name": "location",
          "type": "string",
          "internalType": "string"
        },
        {
          "name": "creator",
          "type": "address",
          "internalType": "address"
        },
        {
          "name": "exists",
          "type": "bool",
          "internalType": "bool"
        }
      ],
      "stateMutability": "view"
    },
    {
      "type": "function",
      "name": "getConnections",
      "inputs": [
        {
          "name": "worldId",
          "type": "uint256",
          "internalType": "uint256"
        }
      ],
      "outputs": [
        {
          "name": "",
          "type": "uint256[]",
          "internalType": "uint256[]"
        }
      ],
      "stateMutability": "view"
    },
    {
      "type": "function",
      "name": "getConnectionsByEvent",
      "inputs": [
        {
          "name": "worldId",
          "type": "uint256",
          "internalType": "uint256"
        },
        {
          "name": "eventId",
          "type": "uint256",
          "internalType": "uint256"
        }
      ],
      "outputs": [
        {
          "name": "",
          "type": "uint256[]",
          "internalType": "uint256[]"
        }
      ],
      "stateMutability": "view"
    },
    {
      "type": "function",
      "name": "getEventParticipants",
      "inputs": [
        {
          "name": "eventId",
          "type": "uint256",
          "internalType": "uint256"
        }
      ],
      "outputs": [
        {
          "name": "",
          "type": "uint256[]",
          "internalType": "uint256[]"
        }
      ],
      "stateMutability": "view"
    },
    {
      "type": "function",
      "name": "people",
      "inputs": [
        {
          "name": "",
          "type": "uint256",
          "internalType": "uint256"
        }
      ],
      "outputs": [
        {
          "name": "name",
          "type": "string",
          "internalType": "string"
        },
        {
          "name": "bio",
          "type": "string",
          "internalType": "string"
        },
        {
          "name": "company",
          "type": "string",
          "internalType": "string"
        },
        {
          "name": "exists",
          "type": "bool",
          "internalType": "bool"
        }
      ],
      "stateMutability": "view"
    },
    {
      "type": "function",
      "name": "registerForEvent",
      "inputs": [
        {
          "name": "worldId",
          "type": "uint256",
          "internalType": "uint256"
        },
        {
          "name": "eventId",
          "type": "uint256",
          "internalType": "uint256"
        }
      ],
      "outputs": [],
      "stateMutability": "nonpayable"
    },
    {
      "type": "function",
      "name": "registerPerson",
      "inputs": [
        {
          "name": "worldId",
          "type": "uint256",
          "internalType": "uint256"
        },
        {
          "name": "name",
          "type": "string",
          "internalType": "string"
        },
        {
          "name": "bio",
          "type": "string",
          "internalType": "string"
        },
        {
          "name": "company",
          "type": "string",
          "internalType": "string"
        }
      ],
      "outputs": [],
      "stateMutability": "nonpayable"
    }
  ],
  "bytecode": {
    "object": "0x6080604052348015600e575f5ffd5b50611c278061001c5f395ff3fe608060405234801561000f575f5ffd5b506004361061009c575f3560e01c806397ab938d1161006457806397ab938d146101825780639e7a13ad1461019e578063b44e133e146101d1578063b50e0182146101ed578063fa3a72711461021d5761009c565b80630b791430146100a0578063235bf508146100d65780634c777c37146101065780635cca4905146101365780636fea5b9414610152575b5f5ffd5b6100ba60048036038101906100b5919061107c565b61024d565b6040516100cd979695949392919061117f565b60405180910390f35b6100f060048036038101906100eb919061107c565b6104cf565b6040516100fd91906112bf565b60405180910390f35b610120600480360381019061011b91906112df565b610536565b60405161012d91906112bf565b60405180910390f35b610150600480360381019061014b919061137e565b6105ad565b005b61016c600480360381019061016791906112df565b610775565b6040516101799190611442565b60405180910390f35b61019c600480360381019061019791906112df565b6107a0565b005b6101b860048036038101906101b3919061107c565b610899565b6040516101c8949392919061145b565b60405180910390f35b6101eb60048036038101906101e691906114b3565b610a62565b005b6102076004803603810190610202919061107c565b610cc9565b60405161021491906112bf565b60405180910390f35b61023760048036038101906102329190611503565b610d30565b6040516102449190611442565b60405180910390f35b6001602052805f5260405f205f91509050805f01549080600101805461027290611614565b80601f016020809104026020016040519081016040528092919081815260200182805461029e90611614565b80156102e95780601f106102c0576101008083540402835291602001916102e9565b820191905f5260205f20905b8154815290600101906020018083116102cc57829003601f168201915b5050505050908060020180546102fe90611614565b80601f016020809104026020016040519081016040528092919081815260200182805461032a90611614565b80156103755780601f1061034c57610100808354040283529160200191610375565b820191905f5260205f20905b81548152906001019060200180831161035857829003601f168201915b50505050509080600301805461038a90611614565b80601f01602080910402602001604051908101604052809291908181526020018280546103b690611614565b80156104015780601f106103d857610100808354040283529160200191610401565b820191905f5260205f20905b8154815290600101906020018083116103e457829003601f168201915b50505050509080600401805461041690611614565b80601f016020809104026020016040519081016040528092919081815260200182805461044290611614565b801561048d5780601f106104645761010080835404028352916020019161048d565b820191905f5260205f20905b81548152906001019060200180831161047057829003601f168201915b505050505090806005015f9054906101000a900473ffffffffffffffffffffffffffffffffffffffff16908060050160149054906101000a900460ff16905087565b606060045f8381526020019081526020015f2080548060200260200160405190810160405280929190818152602001828054801561052a57602002820191905f5260205f20905b815481526020019060010190808311610516575b50505050509050919050565b606060035f8481526020019081526020015f205f8381526020019081526020015f208054806020026020016040519081016040528092919081815260200182805480156105a057602002820191905f5260205f20905b81548152602001906001019080831161058c575b5050505050905092915050565b5f5f8881526020019081526020015f206003015f9054906101000a900460ff161561060d576040517f08c379a00000000000000000000000000000000000000000000000000000000081526004016106049061168e565b60405180910390fd5b604051806080016040528087878080601f0160208091040260200160405190810160405280939291908181526020018383808284375f81840152601f19601f82011690508083019250505050505050815260200185858080601f0160208091040260200160405190810160405280939291908181526020018383808284375f81840152601f19601f82011690508083019250505050505050815260200183838080601f0160208091040260200160405190810160405280939291908181526020018383808284375f81840152601f19601f820116905080830192505050505050508152602001600115158152505f5f8981526020019081526020015f205f820151815f01908161071d9190611879565b5060208201518160010190816107339190611879565b5060408201518160020190816107499190611879565b506060820151816003015f6101000a81548160ff02191690831515021790555090505050505050505050565b6002602052815f5260405f20818154811061078e575f80fd5b905f5260205f20015f91509150505481565b5f5f8381526020019081526020015f206003015f9054906101000a900460ff166107ff576040517f08c379a00000000000000000000000000000000000000000000000000000000081526004016107f690611992565b60405180910390fd5b60015f8281526020019081526020015f2060050160149054906101000a900460ff16610860576040517f08c379a0000000000000000000000000000000000000000000000000000000008152600401610857906119fa565b60405180910390fd5b60025f8281526020019081526020015f2082908060018154018082558091505060019003905f5260205f20015f90919091909150555050565b5f602052805f5260405f205f91509050805f0180546108b790611614565b80601f01602080910402602001604051908101604052809291908181526020018280546108e390611614565b801561092e5780601f106109055761010080835404028352916020019161092e565b820191905f5260205f20905b81548152906001019060200180831161091157829003601f168201915b50505050509080600101805461094390611614565b80601f016020809104026020016040519081016040528092919081815260200182805461096f90611614565b80156109ba5780601f10610991576101008083540402835291602001916109ba565b820191905f5260205f20905b81548152906001019060200180831161099d57829003601f168201915b5050505050908060020180546109cf90611614565b80601f01602080910402602001604051908101604052809291908181526020018280546109fb90611614565b8015610a465780601f10610a1d57610100808354040283529160200191610a46565b820191905f5260205f20905b815481529060010190602001808311610a2957829003601f168201915b505050505090806003015f9054906101000a900460ff16905084565b5f5f8481526020019081526020015f206003015f9054906101000a900460ff16610ac1576040517f08c379a0000000000000000000000000000000000000000000000000000000008152600401610ab890611a62565b60405180910390fd5b5f5f8381526020019081526020015f206003015f9054906101000a900460ff16610b20576040517f08c379a0000000000000000000000000000000000000000000000000000000008152600401610b1790611aca565b60405180910390fd5b60015f8281526020019081526020015f2060050160149054906101000a900460ff16610b81576040517f08c379a0000000000000000000000000000000000000000000000000000000008152600401610b78906119fa565b60405180910390fd5b818303610bc3576040517f08c379a0000000000000000000000000000000000000000000000000000000008152600401610bba90611b32565b60405180910390fd5b60035f8481526020019081526020015f205f8281526020019081526020015f2082908060018154018082558091505060019003905f5260205f20015f909190919091505560035f8381526020019081526020015f205f8281526020019081526020015f2083908060018154018082558091505060019003905f5260205f20015f9091909190915055610c558383610f8c565b610cc45760045f8481526020019081526020015f2082908060018154018082558091505060019003905f5260205f20015f909190919091505560045f8381526020019081526020015f2083908060018154018082558091505060019003905f5260205f20015f90919091909150555b505050565b606060025f8381526020019081526020015f20805480602002602001604051908101604052809291908181526020018280548015610d2457602002820191905f5260205f20905b815481526020019060010190808311610d10575b50505050509050919050565b5f5f60055f815480929190610d4490611b7d565b9190505590506040518060e001604052808281526020018b8b8080601f0160208091040260200160405190810160405280939291908181526020018383808284375f81840152601f19601f82011690508083019250505050505050815260200189898080601f0160208091040260200160405190810160405280939291908181526020018383808284375f81840152601f19601f82011690508083019250505050505050815260200187878080601f0160208091040260200160405190810160405280939291908181526020018383808284375f81840152601f19601f82011690508083019250505050505050815260200185858080601f0160208091040260200160405190810160405280939291908181526020018383808284375f81840152601f19601f8201169050808301925050505050505081526020013373ffffffffffffffffffffffffffffffffffffffff1681526020016001151581525060015f8381526020019081526020015f205f820151815f01556020820151816001019081610ed09190611879565b506040820151816002019081610ee69190611879565b506060820151816003019081610efc9190611879565b506080820151816004019081610f129190611879565b5060a0820151816005015f6101000a81548173ffffffffffffffffffffffffffffffffffffffff021916908373ffffffffffffffffffffffffffffffffffffffff16021790555060c08201518160050160146101000a81548160ff0219169083151502179055509050508091505098975050505050505050565b5f5f60045f8581526020019081526020015f20805480602002602001604051908101604052809291908181526020018280548015610fe757602002820191905f5260205f20905b815481526020019060010190808311610fd3575b505050505090505f5f90505b815181101561103557838282815181106110105761100f611bc4565b5b6020026020010151036110285760019250505061103b565b8080600101915050610ff3565b505f9150505b92915050565b5f5ffd5b5f5ffd5b5f819050919050565b61105b81611049565b8114611065575f5ffd5b50565b5f8135905061107681611052565b92915050565b5f6020828403121561109157611090611041565b5b5f61109e84828501611068565b91505092915050565b6110b081611049565b82525050565b5f81519050919050565b5f82825260208201905092915050565b8281835e5f83830152505050565b5f601f19601f8301169050919050565b5f6110f8826110b6565b61110281856110c0565b93506111128185602086016110d0565b61111b816110de565b840191505092915050565b5f73ffffffffffffffffffffffffffffffffffffffff82169050919050565b5f61114f82611126565b9050919050565b61115f81611145565b82525050565b5f8115159050919050565b61117981611165565b82525050565b5f60e0820190506111925f83018a6110a7565b81810360208301526111a481896110ee565b905081810360408301526111b881886110ee565b905081810360608301526111cc81876110ee565b905081810360808301526111e081866110ee565b90506111ef60a0830185611156565b6111fc60c0830184611170565b98975050505050505050565b5f81519050919050565b5f82825260208201905092915050565b5f819050602082019050919050565b61123a81611049565b82525050565b5f61124b8383611231565b60208301905092915050565b5f602082019050919050565b5f61126d82611208565b6112778185611212565b935061128283611222565b805f5b838110156112b25781516112998882611240565b97506112a483611257565b925050600181019050611285565b5085935050505092915050565b5f6020820190508181035f8301526112d78184611263565b905092915050565b5f5f604083850312156112f5576112f4611041565b5b5f61130285828601611068565b925050602061131385828601611068565b9150509250929050565b5f5ffd5b5f5ffd5b5f5ffd5b5f5f83601f84011261133e5761133d61131d565b5b8235905067ffffffffffffffff81111561135b5761135a611321565b5b60208301915083600182028301111561137757611376611325565b5b9250929050565b5f5f5f5f5f5f5f6080888a03121561139957611398611041565b5b5f6113a68a828b01611068565b975050602088013567ffffffffffffffff8111156113c7576113c6611045565b5b6113d38a828b01611329565b9650965050604088013567ffffffffffffffff8111156113f6576113f5611045565b5b6114028a828b01611329565b9450945050606088013567ffffffffffffffff81111561142557611424611045565b5b6114318a828b01611329565b925092505092959891949750929550565b5f6020820190506114555f8301846110a7565b92915050565b5f6080820190508181035f83015261147381876110ee565b9050818103602083015261148781866110ee565b9050818103604083015261149b81856110ee565b90506114aa6060830184611170565b95945050505050565b5f5f5f606084860312156114ca576114c9611041565b5b5f6114d786828701611068565b93505060206114e886828701611068565b92505060406114f986828701611068565b9150509250925092565b5f5f5f5f5f5f5f5f6080898b03121561151f5761151e611041565b5b5f89013567ffffffffffffffff81111561153c5761153b611045565b5b6115488b828c01611329565b9850985050602089013567ffffffffffffffff81111561156b5761156a611045565b5b6115778b828c01611329565b9650965050604089013567ffffffffffffffff81111561159a57611599611045565b5b6115a68b828c01611329565b9450945050606089013567ffffffffffffffff8111156115c9576115c8611045565b5b6115d58b828c01611329565b92509250509295985092959890939650565b7f4e487b71000000000000000000000000000000000000000000000000000000005f52602260045260245ffd5b5f600282049050600182168061162b57607f821691505b60208210810361163e5761163d6115e7565b5b50919050565b7f506572736f6e20616c72656164792072656769737465726564000000000000005f82015250565b5f6116786019836110c0565b915061168382611644565b602082019050919050565b5f6020820190508181035f8301526116a58161166c565b9050919050565b7f4e487b71000000000000000000000000000000000000000000000000000000005f52604160045260245ffd5b5f819050815f5260205f209050919050565b5f6020601f8301049050919050565b5f82821b905092915050565b5f600883026117357fffffffffffffffffffffffffffffffffffffffffffffffffffffffffffffffff826116fa565b61173f86836116fa565b95508019841693508086168417925050509392505050565b5f819050919050565b5f61177a61177561177084611049565b611757565b611049565b9050919050565b5f819050919050565b61179383611760565b6117a761179f82611781565b848454611706565b825550505050565b5f5f905090565b6117be6117af565b6117c981848461178a565b505050565b5b818110156117ec576117e15f826117b6565b6001810190506117cf565b5050565b601f82111561183157611802816116d9565b61180b846116eb565b8101602085101561181a578190505b61182e611826856116eb565b8301826117ce565b50505b505050565b5f82821c905092915050565b5f6118515f1984600802611836565b1980831691505092915050565b5f6118698383611842565b9150826002028217905092915050565b611882826110b6565b67ffffffffffffffff81111561189b5761189a6116ac565b5b6118a58254611614565b6118b08282856117f0565b5f60209050601f8311600181146118e1575f84156118cf578287015190505b6118d9858261185e565b865550611940565b601f1984166118ef866116d9565b5f5b82811015611916578489015182556001820191506020850194506020810190506118f1565b86831015611933578489015161192f601f891682611842565b8355505b6001600288020188555050505b505050505050565b7f506572736f6e206e6f74207265676973746572656400000000000000000000005f82015250565b5f61197c6015836110c0565b915061198782611948565b602082019050919050565b5f6020820190508181035f8301526119a981611970565b9050919050565b7f4576656e74206e6f7420666f756e6400000000000000000000000000000000005f82015250565b5f6119e4600f836110c0565b91506119ef826119b0565b602082019050919050565b5f6020820190508181035f830152611a11816119d8565b9050919050565b7f596f7520617265206e6f742072656769737465726564000000000000000000005f82015250565b5f611a4c6016836110c0565b9150611a5782611a18565b602082019050919050565b5f6020820190508181035f830152611a7981611a40565b9050919050565b7f4f7468657220706572736f6e206e6f74207265676973746572656400000000005f82015250565b5f611ab4601b836110c0565b9150611abf82611a80565b602082019050919050565b5f6020820190508181035f830152611ae181611aa8565b9050919050565b7f43616e6e6f7420636f6e6e65637420746f20796f757273656c660000000000005f82015250565b5f611b1c601a836110c0565b9150611b2782611ae8565b602082019050919050565b5f6020820190508181035f830152611b4981611b10565b9050919050565b7f4e487b71000000000000000000000000000000000000000000000000000000005f52601160045260245ffd5b5f611b8782611049565b91507fffffffffffffffffffffffffffffffffffffffffffffffffffffffffffffffff8203611bb957611bb8611b50565b5b600182019050919050565b7f4e487b71000000000000000000000000000000000000000000000000000000005f52603260045260245ffdfea2646970667358221220d821c80c9f9682e3a581f448c58f9de7f4e0249347193ad7c1808c23d3d8203c64736f6c634300081b0033",
    "linkReferences": {}
  },
  "methodIdentifiers": {
    "addConnection(uint256,uint256,uint256)": "b44e133e",
    "createEvent(string,string,string,string)": "fa3a7271",
    "eventParticipants(uint256,uint256)": "6fea5b94",
    "events(uint256)": "0b791430",
    "getConnections(uint256)": "235bf508",
    "getConnectionsByEvent(uint256,uint256)": "4c777c37",
    "getEventParticipants(uint256)": "b50e0182",
    "people(uint256)": "9e7a13ad",
    "registerForEvent(uint256,uint256)": "97ab938d",
    "registerPerson(uint256,string,string,string)": "5cca4905"
  },
  "id": 21
}