{
  "abi": [
    {
      "type": "function",
      "name": "addConnection",
      "inputs": [
        {
          "name": "otherPerson",
          "type": "address",
          "internalType": "address"
        },
        {
          "name": "eventId",
          "type": "uint256",
          "internalType": "uint256"
        }
      ],
      "outputs": [],
      "stateMutability": "nonpayable"
    },
    {
      "type": "function",
      "name": "createEvent",
      "inputs": [
        {
          "name": "name",
          "type": "string",
          "internalType": "string"
        },
        {
          "name": "about",
          "type": "string",
          "internalType": "string"
        },
        {
          "name": "date",
          "type": "string",
          "internalType": "string"
        },
        {
          "name": "venue",
          "type": "string",
          "internalType": "string"
        }
      ],
      "outputs": [
        {
          "name": "",
          "type": "uint256",
          "internalType": "uint256"
        }
      ],
      "stateMutability": "nonpayable"
    },
    {
      "type": "function",
      "name": "eventParticipants",
      "inputs": [
        {
          "name": "",
          "type": "uint256",
          "internalType": "uint256"
        },
        {
          "name": "",
          "type": "uint256",
          "internalType": "uint256"
        }
      ],
      "outputs": [
        {
          "name": "",
          "type": "address",
          "internalType": "address"
        }
      ],
      "stateMutability": "view"
    },
    {
      "type": "function",
      "name": "events",
      "inputs": [
        {
          "name": "",
          "type": "uint256",
          "internalType": "uint256"
        }
      ],
      "outputs": [
        {
          "name": "id",
          "type": "uint256",
          "internalType": "uint256"
        },
        {
          "name": "name",
          "type": "string",
          "internalType": "string"
        },
        {
          "name": "about",
          "type": "string",
          "internalType": "string"
        },
        {
          "name": "date",
          "type": "string",
          "internalType": "string"
        },
        {
          "name": "venue",
          "type": "string",
          "internalType": "string"
        },
        {
          "name": "creator",
          "type": "address",
          "internalType": "address"
        }
      ],
      "stateMutability": "view"
    },
    {
      "type": "function",
      "name": "getConnections",
      "inputs": [
        {
          "name": "person",
          "type": "address",
          "internalType": "address"
        }
      ],
      "outputs": [
        {
          "name": "",
          "type": "address[]",
          "internalType": "address[]"
        }
      ],
      "stateMutability": "view"
    },
    {
      "type": "function",
      "name": "getConnectionsByEvent",
      "inputs": [
        {
          "name": "person",
          "type": "address",
          "internalType": "address"
        },
        {
          "name": "eventId",
          "type": "uint256",
          "internalType": "uint256"
        }
      ],
      "outputs": [
        {
          "name": "",
          "type": "address[]",
          "internalType": "address[]"
        }
      ],
      "stateMutability": "view"
    },
    {
      "type": "function",
      "name": "getEventParticipants",
      "inputs": [
        {
          "name": "eventId",
          "type": "uint256",
          "internalType": "uint256"
        }
      ],
      "outputs": [
        {
          "name": "",
          "type": "address[]",
          "internalType": "address[]"
        }
      ],
      "stateMutability": "view"
    },
    {
      "type": "function",
      "name": "people",
      "inputs": [
        {
          "name": "",
          "type": "address",
          "internalType": "address"
        }
      ],
      "outputs": [
        {
          "name": "worldId",
          "type": "string",
          "internalType": "string"
        },
        {
          "name": "name",
          "type": "string",
          "internalType": "string"
        },
        {
          "name": "bio",
          "type": "string",
          "internalType": "string"
        },
        {
          "name": "location",
          "type": "string",
          "internalType": "string"
        },
        {
          "name": "company",
          "type": "string",
          "internalType": "string"
        },
        {
          "name": "isSelfVerified",
          "type": "bool",
          "internalType": "bool"
        }
      ],
      "stateMutability": "view"
    },
    {
      "type": "function",
      "name": "registerForEvent",
      "inputs": [
        {
          "name": "eventId",
          "type": "uint256",
          "internalType": "uint256"
        }
      ],
      "outputs": [],
      "stateMutability": "nonpayable"
    },
    {
      "type": "function",
      "name": "registerPerson",
      "inputs": [
        {
          "name": "worldId",
          "type": "string",
          "internalType": "string"
        },
        {
          "name": "name",
          "type": "string",
          "internalType": "string"
        },
        {
          "name": "bio",
          "type": "string",
          "internalType": "string"
        },
        {
          "name": "location",
          "type": "string",
          "internalType": "string"
        },
        {
          "name": "company",
          "type": "string",
          "internalType": "string"
        }
      ],
      "outputs": [],
      "stateMutability": "nonpayable"
    },
    {
      "type": "function",
      "name": "selfVerify",
      "inputs": [],
      "outputs": [],
      "stateMutability": "nonpayable"
    }
  ],
  "bytecode": {
    "object": "0x6080604052348015600e575f5ffd5b506124858061001c5f395ff3fe608060405234801561000f575f5ffd5b50600436106100a7575f3560e01c80638d7654e21161006f5780638d7654e214610191578063a6856bf7146101c1578063b50e0182146101dd578063f212a38d1461020d578063f42cb86f14610229578063fa3a727114610233576100a7565b806307de9735146100ab5780630b791430146100e0578063406db8431461011557806346552e61146101315780636fea5b9414610161575b5f5ffd5b6100c560048036038101906100c09190611836565b610263565b6040516100d7969594939291906118eb565b60405180910390f35b6100fa60048036038101906100f591906119a0565b610544565b60405161010c969594939291906119e9565b60405180910390f35b61012f600480360381019061012a91906119a0565b6107b3565b005b61014b60048036038101906101469190611836565b610952565b6040516101589190611b1b565b60405180910390f35b61017b60048036038101906101769190611b3b565b610a1a565b6040516101889190611b79565b60405180910390f35b6101ab60048036038101906101a69190611b92565b610a62565b6040516101b89190611b1b565b60405180910390f35b6101db60048036038101906101d69190611b92565b610b3a565b005b6101f760048036038101906101f291906119a0565b610ffe565b6040516102049190611b1b565b60405180910390f35b61022760048036038101906102229190611c31565b61109a565b005b61023161137a565b005b61024d60048036038101906102489190611d48565b61145f565b60405161025a9190611e2c565b60405180910390f35b5f602052805f5260405f205f91509050805f01805461028190611e72565b80601f01602080910402602001604051908101604052809291908181526020018280546102ad90611e72565b80156102f85780601f106102cf576101008083540402835291602001916102f8565b820191905f5260205f20905b8154815290600101906020018083116102db57829003601f168201915b50505050509080600101805461030d90611e72565b80601f016020809104026020016040519081016040528092919081815260200182805461033990611e72565b80156103845780601f1061035b57610100808354040283529160200191610384565b820191905f5260205f20905b81548152906001019060200180831161036757829003601f168201915b50505050509080600201805461039990611e72565b80601f01602080910402602001604051908101604052809291908181526020018280546103c590611e72565b80156104105780601f106103e757610100808354040283529160200191610410565b820191905f5260205f20905b8154815290600101906020018083116103f357829003601f168201915b50505050509080600301805461042590611e72565b80601f016020809104026020016040519081016040528092919081815260200182805461045190611e72565b801561049c5780601f106104735761010080835404028352916020019161049c565b820191905f5260205f20905b81548152906001019060200180831161047f57829003601f168201915b5050505050908060040180546104b190611e72565b80601f01602080910402602001604051908101604052809291908181526020018280546104dd90611e72565b80156105285780601f106104ff57610100808354040283529160200191610528565b820191905f5260205f20905b81548152906001019060200180831161050b57829003601f168201915b505050505090806005015f9054906101000a900460ff16905086565b6001602052805f5260405f205f91509050805f01549080600101805461056990611e72565b80601f016020809104026020016040519081016040528092919081815260200182805461059590611e72565b80156105e05780601f106105b7576101008083540402835291602001916105e0565b820191905f5260205f20905b8154815290600101906020018083116105c357829003601f168201915b5050505050908060020180546105f590611e72565b80601f016020809104026020016040519081016040528092919081815260200182805461062190611e72565b801561066c5780601f106106435761010080835404028352916020019161066c565b820191905f5260205f20905b81548152906001019060200180831161064f57829003601f168201915b50505050509080600301805461068190611e72565b80601f01602080910402602001604051908101604052809291908181526020018280546106ad90611e72565b80156106f85780601f106106cf576101008083540402835291602001916106f8565b820191905f5260205f20905b8154815290600101906020018083116106db57829003601f168201915b50505050509080600401805461070d90611e72565b80601f016020809104026020016040519081016040528092919081815260200182805461073990611e72565b80156107845780601f1061075b57610100808354040283529160200191610784565b820191905f5260205f20905b81548152906001019060200180831161076757829003601f168201915b505050505090806005015f9054906101000a900473ffffffffffffffffffffffffffffffffffffffff16905086565b5f5f5f3373ffffffffffffffffffffffffffffffffffffffff1673ffffffffffffffffffffffffffffffffffffffff1681526020019081526020015f205f0180546107fd90611e72565b90501161083f576040517f08c379a000000000000000000000000000000000000000000000000000000000815260040161083690611eec565b60405180910390fd5b5f73ffffffffffffffffffffffffffffffffffffffff1660015f8381526020019081526020015f206005015f9054906101000a900473ffffffffffffffffffffffffffffffffffffffff1673ffffffffffffffffffffffffffffffffffffffff16036108e0576040517f08c379a00000000000000000000000000000000000000000000000000000000081526004016108d790611f54565b60405180910390fd5b60025f8281526020019081526020015f2033908060018154018082558091505060019003905f5260205f20015f9091909190916101000a81548173ffffffffffffffffffffffffffffffffffffffff021916908373ffffffffffffffffffffffffffffffffffffffff16021790555050565b606060045f8373ffffffffffffffffffffffffffffffffffffffff1673ffffffffffffffffffffffffffffffffffffffff1681526020019081526020015f20805480602002602001604051908101604052809291908181526020018280548015610a0e57602002820191905f5260205f20905b815f9054906101000a900473ffffffffffffffffffffffffffffffffffffffff1673ffffffffffffffffffffffffffffffffffffffff16815260200190600101908083116109c5575b50505050509050919050565b6002602052815f5260405f208181548110610a33575f80fd5b905f5260205f20015f915091509054906101000a900473ffffffffffffffffffffffffffffffffffffffff1681565b606060035f8473ffffffffffffffffffffffffffffffffffffffff1673ffffffffffffffffffffffffffffffffffffffff1681526020019081526020015f205f8381526020019081526020015f20805480602002602001604051908101604052809291908181526020018280548015610b2d57602002820191905f5260205f20905b815f9054906101000a900473ffffffffffffffffffffffffffffffffffffffff1673ffffffffffffffffffffffffffffffffffffffff1681526020019060010190808311610ae4575b5050505050905092915050565b5f5f5f3373ffffffffffffffffffffffffffffffffffffffff1673ffffffffffffffffffffffffffffffffffffffff1681526020019081526020015f205f018054610b8490611e72565b905011610bc6576040517f08c379a0000000000000000000000000000000000000000000000000000000008152600401610bbd90611fbc565b60405180910390fd5b5f5f5f8473ffffffffffffffffffffffffffffffffffffffff1673ffffffffffffffffffffffffffffffffffffffff1681526020019081526020015f205f018054610c1090611e72565b905011610c52576040517f08c379a0000000000000000000000000000000000000000000000000000000008152600401610c4990612024565b60405180910390fd5b5f73ffffffffffffffffffffffffffffffffffffffff1660015f8381526020019081526020015f206005015f9054906101000a900473ffffffffffffffffffffffffffffffffffffffff1673ffffffffffffffffffffffffffffffffffffffff1603610cf3576040517f08c379a0000000000000000000000000000000000000000000000000000000008152600401610cea90611f54565b60405180910390fd5b8173ffffffffffffffffffffffffffffffffffffffff163373ffffffffffffffffffffffffffffffffffffffff1603610d61576040517f08c379a0000000000000000000000000000000000000000000000000000000008152600401610d589061208c565b60405180910390fd5b60035f3373ffffffffffffffffffffffffffffffffffffffff1673ffffffffffffffffffffffffffffffffffffffff1681526020019081526020015f205f8281526020019081526020015f2082908060018154018082558091505060019003905f5260205f20015f9091909190916101000a81548173ffffffffffffffffffffffffffffffffffffffff021916908373ffffffffffffffffffffffffffffffffffffffff16021790555060035f8373ffffffffffffffffffffffffffffffffffffffff1673ffffffffffffffffffffffffffffffffffffffff1681526020019081526020015f205f8281526020019081526020015f2033908060018154018082558091505060019003905f5260205f20015f9091909190916101000a81548173ffffffffffffffffffffffffffffffffffffffff021916908373ffffffffffffffffffffffffffffffffffffffff160217905550610ebf3383611692565b610ffa5760045f3373ffffffffffffffffffffffffffffffffffffffff1673ffffffffffffffffffffffffffffffffffffffff1681526020019081526020015f2082908060018154018082558091505060019003905f5260205f20015f9091909190916101000a81548173ffffffffffffffffffffffffffffffffffffffff021916908373ffffffffffffffffffffffffffffffffffffffff16021790555060045f8373ffffffffffffffffffffffffffffffffffffffff1673ffffffffffffffffffffffffffffffffffffffff1681526020019081526020015f2033908060018154018082558091505060019003905f5260205f20015f9091909190916101000a81548173ffffffffffffffffffffffffffffffffffffffff021916908373ffffffffffffffffffffffffffffffffffffffff1602179055505b5050565b606060025f8381526020019081526020015f2080548060200260200160405190810160405280929190818152602001828054801561108e57602002820191905f5260205f20905b815f9054906101000a900473ffffffffffffffffffffffffffffffffffffffff1673ffffffffffffffffffffffffffffffffffffffff1681526020019060010190808311611045575b50505050509050919050565b5f5f5f3373ffffffffffffffffffffffffffffffffffffffff1673ffffffffffffffffffffffffffffffffffffffff1681526020019081526020015f205f0180546110e490611e72565b905014611126576040517f08c379a000000000000000000000000000000000000000000000000000000000815260040161111d906120f4565b60405180910390fd5b6040518060c001604052808b8b8080601f0160208091040260200160405190810160405280939291908181526020018383808284375f81840152601f19601f82011690508083019250505050505050815260200189898080601f0160208091040260200160405190810160405280939291908181526020018383808284375f81840152601f19601f82011690508083019250505050505050815260200187878080601f0160208091040260200160405190810160405280939291908181526020018383808284375f81840152601f19601f82011690508083019250505050505050815260200185858080601f0160208091040260200160405190810160405280939291908181526020018383808284375f81840152601f19601f82011690508083019250505050505050815260200183838080601f0160208091040260200160405190810160405280939291908181526020018383808284375f81840152601f19601f8201169050808301925050505050505081526020015f15158152505f5f3373ffffffffffffffffffffffffffffffffffffffff1673ffffffffffffffffffffffffffffffffffffffff1681526020019081526020015f205f820151815f0190816112f391906122df565b50602082015181600101908161130991906122df565b50604082015181600201908161131f91906122df565b50606082015181600301908161133591906122df565b50608082015181600401908161134b91906122df565b5060a0820151816005015f6101000a81548160ff02191690831515021790555090505050505050505050505050565b5f5f5f3373ffffffffffffffffffffffffffffffffffffffff1673ffffffffffffffffffffffffffffffffffffffff1681526020019081526020015f205f0180546113c490611e72565b905011611406576040517f08c379a00000000000000000000000000000000000000000000000000000000081526004016113fd90611eec565b60405180910390fd5b60015f5f3373ffffffffffffffffffffffffffffffffffffffff1673ffffffffffffffffffffffffffffffffffffffff1681526020019081526020015f206005015f6101000a81548160ff021916908315150217905550565b5f5f60055f815480929190611473906123db565b9190505590506040518060c001604052808281526020018b8b8080601f0160208091040260200160405190810160405280939291908181526020018383808284375f81840152601f19601f82011690508083019250505050505050815260200189898080601f0160208091040260200160405190810160405280939291908181526020018383808284375f81840152601f19601f82011690508083019250505050505050815260200187878080601f0160208091040260200160405190810160405280939291908181526020018383808284375f81840152601f19601f82011690508083019250505050505050815260200185858080601f0160208091040260200160405190810160405280939291908181526020018383808284375f81840152601f19601f8201169050808301925050505050505081526020013373ffffffffffffffffffffffffffffffffffffffff1681525060015f8381526020019081526020015f205f820151815f015560208201518160010190816115f691906122df565b50604082015181600201908161160c91906122df565b50606082015181600301908161162291906122df565b50608082015181600401908161163891906122df565b5060a0820151816005015f6101000a81548173ffffffffffffffffffffffffffffffffffffffff021916908373ffffffffffffffffffffffffffffffffffffffff1602179055509050508091505098975050505050505050565b5f5f60045f8573ffffffffffffffffffffffffffffffffffffffff1673ffffffffffffffffffffffffffffffffffffffff1681526020019081526020015f2080548060200260200160405190810160405280929190818152602001828054801561174e57602002820191905f5260205f20905b815f9054906101000a900473ffffffffffffffffffffffffffffffffffffffff1673ffffffffffffffffffffffffffffffffffffffff1681526020019060010190808311611705575b505050505090505f5f90505b81518110156117c8578373ffffffffffffffffffffffffffffffffffffffff1682828151811061178d5761178c612422565b5b602002602001015173ffffffffffffffffffffffffffffffffffffffff16036117bb576001925050506117ce565b808060010191505061175a565b505f9150505b92915050565b5f5ffd5b5f5ffd5b5f73ffffffffffffffffffffffffffffffffffffffff82169050919050565b5f611805826117dc565b9050919050565b611815816117fb565b811461181f575f5ffd5b50565b5f813590506118308161180c565b92915050565b5f6020828403121561184b5761184a6117d4565b5b5f61185884828501611822565b91505092915050565b5f81519050919050565b5f82825260208201905092915050565b8281835e5f83830152505050565b5f601f19601f8301169050919050565b5f6118a382611861565b6118ad818561186b565b93506118bd81856020860161187b565b6118c681611889565b840191505092915050565b5f8115159050919050565b6118e5816118d1565b82525050565b5f60c0820190508181035f8301526119038189611899565b905081810360208301526119178188611899565b9050818103604083015261192b8187611899565b9050818103606083015261193f8186611899565b905081810360808301526119538185611899565b905061196260a08301846118dc565b979650505050505050565b5f819050919050565b61197f8161196d565b8114611989575f5ffd5b50565b5f8135905061199a81611976565b92915050565b5f602082840312156119b5576119b46117d4565b5b5f6119c28482850161198c565b91505092915050565b6119d48161196d565b82525050565b6119e3816117fb565b82525050565b5f60c0820190506119fc5f8301896119cb565b8181036020830152611a0e8188611899565b90508181036040830152611a228187611899565b90508181036060830152611a368186611899565b90508181036080830152611a4a8185611899565b9050611a5960a08301846119da565b979650505050505050565b5f81519050919050565b5f82825260208201905092915050565b5f819050602082019050919050565b611a96816117fb565b82525050565b5f611aa78383611a8d565b60208301905092915050565b5f602082019050919050565b5f611ac982611a64565b611ad38185611a6e565b9350611ade83611a7e565b805f5b83811015611b0e578151611af58882611a9c565b9750611b0083611ab3565b925050600181019050611ae1565b5085935050505092915050565b5f6020820190508181035f830152611b338184611abf565b905092915050565b5f5f60408385031215611b5157611b506117d4565b5b5f611b5e8582860161198c565b9250506020611b6f8582860161198c565b9150509250929050565b5f602082019050611b8c5f8301846119da565b92915050565b5f5f60408385031215611ba857611ba76117d4565b5b5f611bb585828601611822565b9250506020611bc68582860161198c565b9150509250929050565b5f5ffd5b5f5ffd5b5f5ffd5b5f5f83601f840112611bf157611bf0611bd0565b5b8235905067ffffffffffffffff811115611c0e57611c0d611bd4565b5b602083019150836001820283011115611c2a57611c29611bd8565b5b9250929050565b5f5f5f5f5f5f5f5f5f5f60a08b8d031215611c4f57611c4e6117d4565b5b5f8b013567ffffffffffffffff811115611c6c57611c6b6117d8565b5b611c788d828e01611bdc565b9a509a505060208b013567ffffffffffffffff811115611c9b57611c9a6117d8565b5b611ca78d828e01611bdc565b985098505060408b013567ffffffffffffffff811115611cca57611cc96117d8565b5b611cd68d828e01611bdc565b965096505060608b013567ffffffffffffffff811115611cf957611cf86117d8565b5b611d058d828e01611bdc565b945094505060808b013567ffffffffffffffff811115611d2857611d276117d8565b5b611d348d828e01611bdc565b92509250509295989b9194979a5092959850565b5f5f5f5f5f5f5f5f6080898b031215611d6457611d636117d4565b5b5f89013567ffffffffffffffff811115611d8157611d806117d8565b5b611d8d8b828c01611bdc565b9850985050602089013567ffffffffffffffff811115611db057611daf6117d8565b5b611dbc8b828c01611bdc565b9650965050604089013567ffffffffffffffff811115611ddf57611dde6117d8565b5b611deb8b828c01611bdc565b9450945050606089013567ffffffffffffffff811115611e0e57611e0d6117d8565b5b611e1a8b828c01611bdc565b92509250509295985092959890939650565b5f602082019050611e3f5f8301846119cb565b92915050565b7f4e487b71000000000000000000000000000000000000000000000000000000005f52602260045260245ffd5b5f6002820490506001821680611e8957607f821691505b602082108103611e9c57611e9b611e45565b5b50919050565b7f4e6f7420726567697374657265640000000000000000000000000000000000005f82015250565b5f611ed6600e8361186b565b9150611ee182611ea2565b602082019050919050565b5f6020820190508181035f830152611f0381611eca565b9050919050565b7f4576656e74206e6f7420666f756e6400000000000000000000000000000000005f82015250565b5f611f3e600f8361186b565b9150611f4982611f0a565b602082019050919050565b5f6020820190508181035f830152611f6b81611f32565b9050919050565b7f596f7520617265206e6f742072656769737465726564000000000000000000005f82015250565b5f611fa660168361186b565b9150611fb182611f72565b602082019050919050565b5f6020820190508181035f830152611fd381611f9a565b9050919050565b7f4f74686572206e6f7420726567697374657265640000000000000000000000005f82015250565b5f61200e60148361186b565b915061201982611fda565b602082019050919050565b5f6020820190508181035f83015261203b81612002565b9050919050565b7f43616e6e6f7420636f6e6e65637420746f20796f757273656c660000000000005f82015250565b5f612076601a8361186b565b915061208182612042565b602082019050919050565b5f6020820190508181035f8301526120a38161206a565b9050919050565b7f506572736f6e20616c72656164792072656769737465726564000000000000005f82015250565b5f6120de60198361186b565b91506120e9826120aa565b602082019050919050565b5f6020820190508181035f83015261210b816120d2565b9050919050565b7f4e487b71000000000000000000000000000000000000000000000000000000005f52604160045260245ffd5b5f819050815f5260205f209050919050565b5f6020601f8301049050919050565b5f82821b905092915050565b5f6008830261219b7fffffffffffffffffffffffffffffffffffffffffffffffffffffffffffffffff82612160565b6121a58683612160565b95508019841693508086168417925050509392505050565b5f819050919050565b5f6121e06121db6121d68461196d565b6121bd565b61196d565b9050919050565b5f819050919050565b6121f9836121c6565b61220d612205826121e7565b84845461216c565b825550505050565b5f5f905090565b612224612215565b61222f8184846121f0565b505050565b5b81811015612252576122475f8261221c565b600181019050612235565b5050565b601f821115612297576122688161213f565b61227184612151565b81016020851015612280578190505b61229461228c85612151565b830182612234565b50505b505050565b5f82821c905092915050565b5f6122b75f198460080261229c565b1980831691505092915050565b5f6122cf83836122a8565b9150826002028217905092915050565b6122e882611861565b67ffffffffffffffff81111561230157612300612112565b5b61230b8254611e72565b612316828285612256565b5f60209050601f831160018114612347575f8415612335578287015190505b61233f85826122c4565b8655506123a6565b601f1984166123558661213f565b5f5b8281101561237c57848901518255600182019150602085019450602081019050612357565b868310156123995784890151612395601f8916826122a8565b8355505b6001600288020188555050505b505050505050565b7f4e487b71000000000000000000000000000000000000000000000000000000005f52601160045260245ffd5b5f6123e58261196d565b91507fffffffffffffffffffffffffffffffffffffffffffffffffffffffffffffffff8203612417576124166123ae565b5b600182019050919050565b7f4e487b71000000000000000000000000000000000000000000000000000000005f52603260045260245ffdfea2646970667358221220e918cdf66582c6d81756ac1bfd3fedf85858640963cb01c469293fcd0b2741da64736f6c634300081b0033",
    "linkReferences": {}
  },
  "methodIdentifiers": {
    "addConnection(address,uint256)": "a6856bf7",
    "createEvent(string,string,string,string)": "fa3a7271",
    "eventParticipants(uint256,uint256)": "6fea5b94",
    "events(uint256)": "0b791430",
    "getConnections(address)": "46552e61",
    "getConnectionsByEvent(address,uint256)": "8d7654e2",
    "getEventParticipants(uint256)": "b50e0182",
    "people(address)": "07de9735",
    "registerForEvent(uint256)": "406db843",
    "registerPerson(string,string,string,string,string)": "f212a38d",
    "selfVerify()": "f42cb86f"
  },
  "id": 21
}